{
  "contractName": "SupplyChain",
  "abi": [
    {
      "inputs": [],
      "payable": false,
      "stateMutability": "nonpayable",
      "type": "constructor"
    },
    {
      "constant": true,
      "inputs": [
        {
          "internalType": "uint256",
          "name": "",
          "type": "uint256"
        }
      ],
      "name": "DIS",
      "outputs": [
        {
          "internalType": "address",
          "name": "addr",
          "type": "address"
        },
        {
          "internalType": "uint256",
          "name": "id",
          "type": "uint256"
        },
        {
          "internalType": "string",
          "name": "name",
          "type": "string"
        },
        {
          "internalType": "string",
          "name": "place",
          "type": "string"
        },
        {
          "internalType": "bool",
          "name": "canDeliverFragile",
          "type": "bool"
        }
      ],
      "payable": false,
      "stateMutability": "view",
      "type": "function"
    },
    {
      "constant": true,
      "inputs": [
        {
          "internalType": "uint256",
          "name": "",
          "type": "uint256"
        }
      ],
      "name": "MAN",
      "outputs": [
        {
          "internalType": "address",
          "name": "addr",
          "type": "address"
        },
        {
          "internalType": "uint256",
          "name": "id",
          "type": "uint256"
        },
        {
          "internalType": "string",
          "name": "name",
          "type": "string"
        },
        {
          "internalType": "string",
          "name": "place",
          "type": "string"
        }
      ],
      "payable": false,
      "stateMutability": "view",
      "type": "function"
    },
    {
      "constant": true,
      "inputs": [
        {
          "internalType": "uint256",
          "name": "",
          "type": "uint256"
        }
      ],
      "name": "MedicineStock",
      "outputs": [
        {
          "internalType": "uint256",
          "name": "id",
          "type": "uint256"
        },
        {
          "internalType": "string",
          "name": "name",
          "type": "string"
        },
        {
          "internalType": "string",
          "name": "description",
          "type": "string"
        },
        {
          "internalType": "uint256",
          "name": "RMSid",
          "type": "uint256"
        },
        {
          "internalType": "uint256",
          "name": "MANid",
          "type": "uint256"
        },
        {
          "internalType": "uint256",
          "name": "DISid",
          "type": "uint256"
        },
        {
          "internalType": "uint256",
          "name": "RETid",
          "type": "uint256"
        },
        {
          "internalType": "enum SupplyChain.STAGE",
          "name": "stage",
          "type": "uint8"
        }
      ],
      "payable": false,
      "stateMutability": "view",
      "type": "function"
    },
    {
      "constant": true,
      "inputs": [],
      "name": "Owner",
      "outputs": [
        {
          "internalType": "address",
          "name": "",
          "type": "address"
        }
      ],
      "payable": false,
      "stateMutability": "view",
      "type": "function"
    },
    {
      "constant": true,
      "inputs": [
        {
          "internalType": "uint256",
          "name": "",
          "type": "uint256"
        }
      ],
      "name": "RET",
      "outputs": [
        {
          "internalType": "address",
          "name": "addr",
          "type": "address"
        },
        {
          "internalType": "uint256",
          "name": "id",
          "type": "uint256"
        },
        {
          "internalType": "string",
          "name": "name",
          "type": "string"
        },
        {
          "internalType": "string",
          "name": "place",
          "type": "string"
        }
      ],
      "payable": false,
      "stateMutability": "view",
      "type": "function"
    },
    {
      "constant": true,
      "inputs": [
        {
          "internalType": "uint256",
          "name": "",
          "type": "uint256"
        }
      ],
      "name": "RMS",
      "outputs": [
        {
          "internalType": "address",
          "name": "addr",
          "type": "address"
        },
        {
          "internalType": "uint256",
          "name": "id",
          "type": "uint256"
        },
        {
          "internalType": "string",
          "name": "name",
          "type": "string"
        },
        {
          "internalType": "string",
          "name": "place",
          "type": "string"
        }
      ],
      "payable": false,
      "stateMutability": "view",
      "type": "function"
    },
    {
      "constant": true,
      "inputs": [],
      "name": "disCtr",
      "outputs": [
        {
          "internalType": "uint256",
          "name": "",
          "type": "uint256"
        }
      ],
      "payable": false,
      "stateMutability": "view",
      "type": "function"
    },
    {
      "constant": true,
      "inputs": [],
      "name": "manCtr",
      "outputs": [
        {
          "internalType": "uint256",
          "name": "",
          "type": "uint256"
        }
      ],
      "payable": false,
      "stateMutability": "view",
      "type": "function"
    },
    {
      "constant": true,
      "inputs": [],
      "name": "medicineCtr",
      "outputs": [
        {
          "internalType": "uint256",
          "name": "",
          "type": "uint256"
        }
      ],
      "payable": false,
      "stateMutability": "view",
      "type": "function"
    },
    {
      "constant": true,
      "inputs": [],
      "name": "retCtr",
      "outputs": [
        {
          "internalType": "uint256",
          "name": "",
          "type": "uint256"
        }
      ],
      "payable": false,
      "stateMutability": "view",
      "type": "function"
    },
    {
      "constant": true,
      "inputs": [],
      "name": "rmsCtr",
      "outputs": [
        {
          "internalType": "uint256",
          "name": "",
          "type": "uint256"
        }
      ],
      "payable": false,
      "stateMutability": "view",
      "type": "function"
    },
    {
      "constant": true,
      "inputs": [
        {
          "internalType": "uint256",
          "name": "_id",
          "type": "uint256"
        }
      ],
      "name": "getRMS",
      "outputs": [
        {
          "internalType": "address",
          "name": "addr",
          "type": "address"
        },
        {
          "internalType": "uint256",
          "name": "id",
          "type": "uint256"
        },
        {
          "internalType": "string",
          "name": "name",
          "type": "string"
        },
        {
          "internalType": "string",
          "name": "place",
          "type": "string"
        },
        {
          "internalType": "string[]",
          "name": "materials",
          "type": "string[]"
        }
      ],
      "payable": false,
      "stateMutability": "view",
      "type": "function"
    },
    {
      "constant": false,
      "inputs": [
        {
          "internalType": "address",
          "name": "_address",
          "type": "address"
        },
        {
          "internalType": "string",
          "name": "_name",
          "type": "string"
        },
        {
          "internalType": "string",
          "name": "_place",
          "type": "string"
        },
        {
          "internalType": "string[]",
          "name": "_materials",
          "type": "string[]"
        }
      ],
      "name": "addRMS",
      "outputs": [],
      "payable": false,
      "stateMutability": "nonpayable",
      "type": "function"
    },
    {
      "constant": false,
      "inputs": [
        {
          "internalType": "address",
          "name": "_address",
          "type": "address"
        },
        {
          "internalType": "string",
          "name": "_name",
          "type": "string"
        },
        {
          "internalType": "string",
          "name": "_place",
          "type": "string"
        },
        {
          "internalType": "string[]",
          "name": "_availableProducts",
          "type": "string[]"
        }
      ],
      "name": "addManufacturer",
      "outputs": [],
      "payable": false,
      "stateMutability": "nonpayable",
      "type": "function"
    },
    {
      "constant": false,
      "inputs": [
        {
          "internalType": "address",
          "name": "_address",
          "type": "address"
        },
        {
          "internalType": "string",
          "name": "_name",
          "type": "string"
        },
        {
          "internalType": "string",
          "name": "_place",
          "type": "string"
        },
        {
          "internalType": "bool",
          "name": "_canDeliverFragile",
          "type": "bool"
        }
      ],
      "name": "addDistributor",
      "outputs": [],
      "payable": false,
      "stateMutability": "nonpayable",
      "type": "function"
    },
    {
      "constant": false,
      "inputs": [
        {
          "internalType": "address",
          "name": "_address",
          "type": "address"
        },
        {
          "internalType": "string",
          "name": "_name",
          "type": "string"
        },
        {
          "internalType": "string",
          "name": "_place",
          "type": "string"
        }
      ],
      "name": "addRetailer",
      "outputs": [],
      "payable": false,
      "stateMutability": "nonpayable",
      "type": "function"
    },
    {
      "constant": false,
      "inputs": [
        {
          "internalType": "uint256",
          "name": "_medicineID",
          "type": "uint256"
        }
      ],
      "name": "RMSsupply",
      "outputs": [],
      "payable": false,
      "stateMutability": "nonpayable",
      "type": "function"
    },
    {
      "constant": false,
      "inputs": [
        {
          "internalType": "uint256",
          "name": "_medicineID",
          "type": "uint256"
        }
      ],
      "name": "Manufacturing",
      "outputs": [],
      "payable": false,
      "stateMutability": "nonpayable",
      "type": "function"
    },
    {
      "constant": false,
      "inputs": [
        {
          "internalType": "uint256",
          "name": "_medicineID",
          "type": "uint256"
        }
      ],
      "name": "Distribute",
      "outputs": [],
      "payable": false,
      "stateMutability": "nonpayable",
      "type": "function"
    },
    {
      "constant": false,
      "inputs": [
        {
          "internalType": "uint256",
          "name": "_medicineID",
          "type": "uint256"
        }
      ],
      "name": "Retail",
      "outputs": [],
      "payable": false,
      "stateMutability": "nonpayable",
      "type": "function"
    },
    {
      "constant": false,
      "inputs": [
        {
          "internalType": "uint256",
          "name": "_medicineID",
          "type": "uint256"
        }
      ],
      "name": "sold",
      "outputs": [],
      "payable": false,
      "stateMutability": "nonpayable",
      "type": "function"
    },
    {
      "constant": false,
      "inputs": [
        {
          "internalType": "string",
          "name": "_name",
          "type": "string"
        },
        {
          "internalType": "string",
          "name": "_description",
          "type": "string"
        }
      ],
      "name": "addMedicine",
      "outputs": [],
      "payable": false,
      "stateMutability": "nonpayable",
      "type": "function"
    },
    {
      "constant": true,
      "inputs": [
        {
          "internalType": "uint256",
          "name": "_id",
          "type": "uint256"
        }
      ],
      "name": "getManufacturer",
      "outputs": [
        {
          "internalType": "address",
          "name": "addr",
          "type": "address"
        },
        {
          "internalType": "uint256",
          "name": "id",
          "type": "uint256"
        },
        {
          "internalType": "string",
          "name": "name",
          "type": "string"
        },
        {
          "internalType": "string",
          "name": "place",
          "type": "string"
        },
        {
          "internalType": "string[]",
          "name": "availableProducts",
          "type": "string[]"
        }
      ],
      "payable": false,
      "stateMutability": "view",
      "type": "function"
    },
    {
      "constant": true,
      "inputs": [
        {
          "internalType": "uint256",
          "name": "_id",
          "type": "uint256"
        }
      ],
      "name": "getDistributor",
      "outputs": [
        {
          "internalType": "address",
          "name": "addr",
          "type": "address"
        },
        {
          "internalType": "uint256",
          "name": "id",
          "type": "uint256"
        },
        {
          "internalType": "string",
          "name": "name",
          "type": "string"
        },
        {
          "internalType": "string",
          "name": "place",
          "type": "string"
        },
        {
          "internalType": "bool",
          "name": "canDeliverFragile",
          "type": "bool"
        }
      ],
      "payable": false,
      "stateMutability": "view",
      "type": "function"
    },
    {
      "constant": true,
      "inputs": [
        {
          "internalType": "uint256",
          "name": "_medicineID",
          "type": "uint256"
        }
      ],
      "name": "showStage",
      "outputs": [
        {
          "internalType": "string",
          "name": "",
          "type": "string"
        }
      ],
      "payable": false,
      "stateMutability": "view",
      "type": "function"
    }
  ],
  "bytecode": "0x60806040526000600155600060025560006003556000600455600060055534801561002957600080fd5b50336000806101000a81548173ffffffffffffffffffffffffffffffffffffffff021916908373ffffffffffffffffffffffffffffffffffffffff1602179055506133cb806100796000396000f3fe608060405234801561001057600080fd5b50600436106101735760003560e01c80638ed6812a116100de578063b527fb7911610097578063dd28639811610071578063dd2863981461045c578063e101a2e01461047a578063eb1a06b5146104aa578063eef5cb40146104e157610173565b8063b527fb79146103d9578063cc4030691461040d578063d42eaf3b1461044057610173565b80638ed6812a1461032d5780638f4183cc146103495780639c03facb14610365578063a48d335a14610381578063a95f29d91461039d578063b4a99a4e146103bb57610173565b80634def474a116101305780634def474a1461025457806359bf286f1461027057806360166fe3146102a35780637e43d94d146102d7578063857ddb04146102f557806386c182751461031157610173565b806307f931931461017857806318c60265146101945780632b0187ac146101c85780632bdb2e6b146101fc5780633d753a1c1461021a578063438e9c4d14610236575b600080fd5b610192600480360361018d9190810190612adf565b610514565b005b6101ae60048036036101a99190810190612bde565b6106bf565b6040516101bf959493929190612e92565b60405180910390f35b6101e260048036036101dd9190810190612bde565b610994565b6040516101f3959493929190612fae565b60405180910390f35b610204610b27565b60405161021191906130b1565b60405180910390f35b610234600480360361022f9190810190612bde565b610b2d565b005b61023e610bff565b60405161024b91906130b1565b60405180910390f35b61026e60048036036102699190810190612bde565b610c05565b005b61028a60048036036102859190810190612bde565b610cd7565b60405161029a9493929190612f5b565b60405180910390f35b6102bd60048036036102b89190810190612bde565b610e57565b6040516102ce959493929190612efa565b60405180910390f35b6102df611056565b6040516102ec91906130b1565b60405180910390f35b61030f600480360361030a91908101906129b5565b61105c565b005b61032b60048036036103269190810190612bde565b6111de565b005b61034760048036036103429190810190612a34565b6112b0565b005b610363600480360361035e9190810190612b72565b611456565b005b61037f600480360361037a9190810190612bde565b61162d565b005b61039b60048036036103969190810190612bde565b611706565b005b6103a56117d8565b6040516103b291906130b1565b60405180910390f35b6103c36117de565b6040516103d09190612e77565b60405180910390f35b6103f360048036036103ee9190810190612bde565b611803565b604051610404959493929190612e92565b60405180910390f35b61042760048036036104229190810190612bde565b611ad8565b6040516104379493929190612f5b565b60405180910390f35b61045a60048036036104559190810190612a34565b611c58565b005b610464611dfe565b60405161047191906130b1565b60405180910390f35b610494600480360361048f9190810190612bde565b611e04565b6040516104a1919061300f565b60405180910390f35b6104c460048036036104bf9190810190612bde565b612114565b6040516104d89897969594939291906130cc565b60405180910390f35b6104fb60048036036104f69190810190612bde565b612299565b60405161050b9493929190612f5b565b60405180910390f35b6000809054906101000a900473ffffffffffffffffffffffffffffffffffffffff1673ffffffffffffffffffffffffffffffffffffffff163373ffffffffffffffffffffffffffffffffffffffff16146105a3576040517f08c379a000000000000000000000000000000000000000000000000000000000815260040161059a90613071565b60405180910390fd5b6004600081548092919060010191905055506040518060a001604052808573ffffffffffffffffffffffffffffffffffffffff168152602001600454815260200184815260200183815260200182151581525060096000600454815260200190815260200160002060008201518160000160006101000a81548173ffffffffffffffffffffffffffffffffffffffff021916908373ffffffffffffffffffffffffffffffffffffffff1602179055506020820151816001015560408201518160020190805190602001906106789291906126e1565b5060608201518160030190805190602001906106959291906126e1565b5060808201518160040160006101000a81548160ff02191690831515021790555090505050505050565b60008060608060606000861180156106d957506002548611155b610718576040517f08c379a000000000000000000000000000000000000000000000000000000000815260040161070f90613091565b60405180910390fd5b60006007600088815260200190815260200160002090508060000160009054906101000a900473ffffffffffffffffffffffffffffffffffffffff168160010154826002018360030184600401828054600181600116156101000203166002900480601f0160208091040260200160405190810160405280929190818152602001828054600181600116156101000203166002900480156107fa5780601f106107cf576101008083540402835291602001916107fa565b820191906000526020600020905b8154815290600101906020018083116107dd57829003601f168201915b50505050509250818054600181600116156101000203166002900480601f0160208091040260200160405190810160405280929190818152602001828054600181600116156101000203166002900480156108965780601f1061086b57610100808354040283529160200191610896565b820191906000526020600020905b81548152906001019060200180831161087957829003601f168201915b5050505050915080805480602002602001604051908101604052809291908181526020016000905b8282101561097a578382906000526020600020018054600181600116156101000203166002900480601f0160208091040260200160405190810160405280929190818152602001828054600181600116156101000203166002900480156109665780601f1061093b57610100808354040283529160200191610966565b820191906000526020600020905b81548152906001019060200180831161094957829003601f168201915b5050505050815260200190600101906108be565b505050509050955095509550955095505091939590929450565b60096020528060005260406000206000915090508060000160009054906101000a900473ffffffffffffffffffffffffffffffffffffffff1690806001015490806002018054600181600116156101000203166002900480601f016020809104026020016040519081016040528092919081815260200182805460018160011615610100020316600290048015610a6c5780601f10610a4157610100808354040283529160200191610a6c565b820191906000526020600020905b815481529060010190602001808311610a4f57829003601f168201915b505050505090806003018054600181600116156101000203166002900480601f016020809104026020016040519081016040528092919081815260200182805460018160011615610100020316600290048015610b0a5780601f10610adf57610100808354040283529160200191610b0a565b820191906000526020600020905b815481529060010190602001808311610aed57829003601f168201915b5050505050908060040160009054906101000a900460ff16905085565b60045481565b600081118015610b3f57506001548111155b610b4857600080fd5b6000610b5333612419565b905060008111610b6257600080fd5b60036005811115610b6f57fe5b6006600084815260200190815260200160002060070160009054906101000a900460ff166005811115610b9e57fe5b14610ba857600080fd5b80600660008481526020019081526020016000206006018190555060046006600084815260200190815260200160002060070160006101000a81548160ff02191690836005811115610bf657fe5b02179055505050565b60035481565b600081118015610c1757506001548111155b610c2057600080fd5b6000610c2b336124cb565b905060008111610c3a57600080fd5b60026005811115610c4757fe5b6006600084815260200190815260200160002060070160009054906101000a900460ff166005811115610c7657fe5b14610c8057600080fd5b80600660008481526020019081526020016000206005018190555060036006600084815260200190815260200160002060070160006101000a81548160ff02191690836005811115610cce57fe5b02179055505050565b600a6020528060005260406000206000915090508060000160009054906101000a900473ffffffffffffffffffffffffffffffffffffffff1690806001015490806002018054600181600116156101000203166002900480601f016020809104026020016040519081016040528092919081815260200182805460018160011615610100020316600290048015610daf5780601f10610d8457610100808354040283529160200191610daf565b820191906000526020600020905b815481529060010190602001808311610d9257829003601f168201915b505050505090806003018054600181600116156101000203166002900480601f016020809104026020016040519081016040528092919081815260200182805460018160011615610100020316600290048015610e4d5780601f10610e2257610100808354040283529160200191610e4d565b820191906000526020600020905b815481529060010190602001808311610e3057829003601f168201915b5050505050905084565b60008060608060008086118015610e7057506004548611155b610eaf576040517f08c379a0000000000000000000000000000000000000000000000000000000008152600401610ea690613031565b60405180910390fd5b60006009600088815260200190815260200160002090508060000160009054906101000a900473ffffffffffffffffffffffffffffffffffffffff16816001015482600201836003018460040160009054906101000a900460ff16828054600181600116156101000203166002900480601f016020809104026020016040519081016040528092919081815260200182805460018160011615610100020316600290048015610f9f5780601f10610f7457610100808354040283529160200191610f9f565b820191906000526020600020905b815481529060010190602001808311610f8257829003601f168201915b50505050509250818054600181600116156101000203166002900480601f01602080910402602001604051908101604052809291908181526020018280546001816001161561010002031660029004801561103b5780601f106110105761010080835404028352916020019161103b565b820191906000526020600020905b81548152906001019060200180831161101e57829003601f168201915b50505050509150955095509550955095505091939590929450565b60055481565b6000809054906101000a900473ffffffffffffffffffffffffffffffffffffffff1673ffffffffffffffffffffffffffffffffffffffff163373ffffffffffffffffffffffffffffffffffffffff16146110eb576040517f08c379a00000000000000000000000000000000000000000000000000000000081526004016110e290613071565b60405180910390fd5b60056000815480929190600101919050555060405180608001604052808473ffffffffffffffffffffffffffffffffffffffff168152602001600554815260200183815260200182815250600a6000600554815260200190815260200160002060008201518160000160006101000a81548173ffffffffffffffffffffffffffffffffffffffff021916908373ffffffffffffffffffffffffffffffffffffffff1602179055506020820151816001015560408201518160020190805190602001906111b89291906126e1565b5060608201518160030190805190602001906111d59291906126e1565b50905050505050565b6000811180156111f057506001548111155b6111f957600080fd5b60006112043361257d565b90506000811161121357600080fd5b6000600581111561122057fe5b6006600084815260200190815260200160002060070160009054906101000a900460ff16600581111561124f57fe5b1461125957600080fd5b80600660008481526020019081526020016000206003018190555060016006600084815260200190815260200160002060070160006101000a81548160ff021916908360058111156112a757fe5b02179055505050565b6000809054906101000a900473ffffffffffffffffffffffffffffffffffffffff1673ffffffffffffffffffffffffffffffffffffffff163373ffffffffffffffffffffffffffffffffffffffff161461133f576040517f08c379a000000000000000000000000000000000000000000000000000000000815260040161133690613071565b60405180910390fd5b6002600081548092919060010191905055506040518060a001604052808573ffffffffffffffffffffffffffffffffffffffff16815260200160025481526020018481526020018381526020018281525060076000600254815260200190815260200160002060008201518160000160006101000a81548173ffffffffffffffffffffffffffffffffffffffff021916908373ffffffffffffffffffffffffffffffffffffffff1602179055506020820151816001015560408201518160020190805190602001906114129291906126e1565b50606082015181600301908051906020019061142f9291906126e1565b50608082015181600401908051906020019061144c929190612761565b5090505050505050565b6000809054906101000a900473ffffffffffffffffffffffffffffffffffffffff1673ffffffffffffffffffffffffffffffffffffffff163373ffffffffffffffffffffffffffffffffffffffff16146114e5576040517f08c379a00000000000000000000000000000000000000000000000000000000081526004016114dc90613071565b60405180910390fd5b60006002541180156114f957506000600354115b801561150757506000600454115b801561151557506000600554115b61151e57600080fd5b6001600081548092919060010191905055506040518061010001604052806001548152602001838152602001828152602001600081526020016000815260200160008152602001600081526020016000600581111561157957fe5b8152506006600060015481526020019081526020016000206000820151816000015560208201518160010190805190602001906115b79291906126e1565b5060408201518160020190805190602001906115d49291906126e1565b50606082015181600301556080820151816004015560a0820151816005015560c0820151816006015560e08201518160070160006101000a81548160ff0219169083600581111561162157fe5b02179055509050505050565b60008111801561163f57506001548111155b61164857600080fd5b600061165333612419565b90506000811161166257600080fd5b6006600083815260200190815260200160002060060154811461168457600080fd5b6004600581111561169157fe5b6006600084815260200190815260200160002060070160009054906101000a900460ff1660058111156116c057fe5b146116ca57600080fd5b60056006600084815260200190815260200160002060070160006101000a81548160ff021916908360058111156116fd57fe5b02179055505050565b60008111801561171857506001548111155b61172157600080fd5b600061172c3361262f565b90506000811161173b57600080fd5b6001600581111561174857fe5b6006600084815260200190815260200160002060070160009054906101000a900460ff16600581111561177757fe5b1461178157600080fd5b80600660008481526020019081526020016000206004018190555060026006600084815260200190815260200160002060070160006101000a81548160ff021916908360058111156117cf57fe5b02179055505050565b60015481565b6000809054906101000a900473ffffffffffffffffffffffffffffffffffffffff1681565b600080606080606060008611801561181d57506003548611155b61185c576040517f08c379a000000000000000000000000000000000000000000000000000000000815260040161185390613051565b60405180910390fd5b60006008600088815260200190815260200160002090508060000160009054906101000a900473ffffffffffffffffffffffffffffffffffffffff168160010154826002018360030184600401828054600181600116156101000203166002900480601f01602080910402602001604051908101604052809291908181526020018280546001816001161561010002031660029004801561193e5780601f106119135761010080835404028352916020019161193e565b820191906000526020600020905b81548152906001019060200180831161192157829003601f168201915b50505050509250818054600181600116156101000203166002900480601f0160208091040260200160405190810160405280929190818152602001828054600181600116156101000203166002900480156119da5780601f106119af576101008083540402835291602001916119da565b820191906000526020600020905b8154815290600101906020018083116119bd57829003601f168201915b5050505050915080805480602002602001604051908101604052809291908181526020016000905b82821015611abe578382906000526020600020018054600181600116156101000203166002900480601f016020809104026020016040519081016040528092919081815260200182805460018160011615610100020316600290048015611aaa5780601f10611a7f57610100808354040283529160200191611aaa565b820191906000526020600020905b815481529060010190602001808311611a8d57829003601f168201915b505050505081526020019060010190611a02565b505050509050955095509550955095505091939590929450565b60086020528060005260406000206000915090508060000160009054906101000a900473ffffffffffffffffffffffffffffffffffffffff1690806001015490806002018054600181600116156101000203166002900480601f016020809104026020016040519081016040528092919081815260200182805460018160011615610100020316600290048015611bb05780601f10611b8557610100808354040283529160200191611bb0565b820191906000526020600020905b815481529060010190602001808311611b9357829003601f168201915b505050505090806003018054600181600116156101000203166002900480601f016020809104026020016040519081016040528092919081815260200182805460018160011615610100020316600290048015611c4e5780601f10611c2357610100808354040283529160200191611c4e565b820191906000526020600020905b815481529060010190602001808311611c3157829003601f168201915b5050505050905084565b6000809054906101000a900473ffffffffffffffffffffffffffffffffffffffff1673ffffffffffffffffffffffffffffffffffffffff163373ffffffffffffffffffffffffffffffffffffffff1614611ce7576040517f08c379a0000000000000000000000000000000000000000000000000000000008152600401611cde90613071565b60405180910390fd5b6003600081548092919060010191905055506040518060a001604052808573ffffffffffffffffffffffffffffffffffffffff16815260200160035481526020018481526020018381526020018281525060086000600354815260200190815260200160002060008201518160000160006101000a81548173ffffffffffffffffffffffffffffffffffffffff021916908373ffffffffffffffffffffffffffffffffffffffff160217905550602082015181600101556040820151816002019080519060200190611dba9291906126e1565b506060820151816003019080519060200190611dd79291906126e1565b506080820151816004019080519060200190611df4929190612761565b5090505050505050565b60025481565b6060600060015411611e1557600080fd5b60006005811115611e2257fe5b6006600084815260200190815260200160002060070160009054906101000a900460ff166005811115611e5157fe5b1415611e94576040518060400160405280600d81526020017f476f6f6473204f72646572656400000000000000000000000000000000000000815250905061210f565b60016005811115611ea157fe5b6006600084815260200190815260200160002060070160009054906101000a900460ff166005811115611ed057fe5b1415611f13576040518060400160405280601981526020017f526177204d6174657269616c20537570706c7920537461676500000000000000815250905061210f565b60026005811115611f2057fe5b6006600084815260200190815260200160002060070160009054906101000a900460ff166005811115611f4f57fe5b1415611f92576040518060400160405280601381526020017f4d616e75666163747572696e6720537461676500000000000000000000000000815250905061210f565b60036005811115611f9f57fe5b6006600084815260200190815260200160002060070160009054906101000a900460ff166005811115611fce57fe5b1415612011576040518060400160405280601281526020017f446973747269627574696f6e2053746167650000000000000000000000000000815250905061210f565b6004600581111561201e57fe5b6006600084815260200190815260200160002060070160009054906101000a900460ff16600581111561204d57fe5b1415612090576040518060400160405280600c81526020017f52657461696c2053746167650000000000000000000000000000000000000000815250905061210f565b60058081111561209c57fe5b6006600084815260200190815260200160002060070160009054906101000a900460ff1660058111156120cb57fe5b141561210e576040518060400160405280600a81526020017f476f6f647320536f6c6400000000000000000000000000000000000000000000815250905061210f565b5b919050565b6006602052806000526040600020600091509050806000015490806001018054600181600116156101000203166002900480601f0160208091040260200160405190810160405280929190818152602001828054600181600116156101000203166002900480156121c65780601f1061219b576101008083540402835291602001916121c6565b820191906000526020600020905b8154815290600101906020018083116121a957829003601f168201915b505050505090806002018054600181600116156101000203166002900480601f0160208091040260200160405190810160405280929190818152602001828054600181600116156101000203166002900480156122645780601f1061223957610100808354040283529160200191612264565b820191906000526020600020905b81548152906001019060200180831161224757829003601f168201915b5050505050908060030154908060040154908060050154908060060154908060070160009054906101000a900460ff16905088565b60076020528060005260406000206000915090508060000160009054906101000a900473ffffffffffffffffffffffffffffffffffffffff1690806001015490806002018054600181600116156101000203166002900480601f0160208091040260200160405190810160405280929190818152602001828054600181600116156101000203166002900480156123715780601f1061234657610100808354040283529160200191612371565b820191906000526020600020905b81548152906001019060200180831161235457829003601f168201915b505050505090806003018054600181600116156101000203166002900480601f01602080910402602001604051908101604052809291908181526020018280546001816001161561010002031660029004801561240f5780601f106123e45761010080835404028352916020019161240f565b820191906000526020600020905b8154815290600101906020018083116123f257829003601f168201915b5050505050905084565b600080600190505b60055481116124c0578273ffffffffffffffffffffffffffffffffffffffff16600a600083815260200190815260200160002060000160009054906101000a900473ffffffffffffffffffffffffffffffffffffffff1673ffffffffffffffffffffffffffffffffffffffff1614156124b357600a6000828152602001908152602001600020600101549150506124c6565b8080600101915050612421565b50600090505b919050565b600080600190505b6004548111612572578273ffffffffffffffffffffffffffffffffffffffff166009600083815260200190815260200160002060000160009054906101000a900473ffffffffffffffffffffffffffffffffffffffff1673ffffffffffffffffffffffffffffffffffffffff161415612565576009600082815260200190815260200160002060010154915050612578565b80806001019150506124d3565b50600090505b919050565b600080600190505b6002548111612624578273ffffffffffffffffffffffffffffffffffffffff166007600083815260200190815260200160002060000160009054906101000a900473ffffffffffffffffffffffffffffffffffffffff1673ffffffffffffffffffffffffffffffffffffffff16141561261757600760008281526020019081526020016000206001015491505061262a565b8080600101915050612585565b50600090505b919050565b600080600190505b60035481116126d6578273ffffffffffffffffffffffffffffffffffffffff166008600083815260200190815260200160002060000160009054906101000a900473ffffffffffffffffffffffffffffffffffffffff1673ffffffffffffffffffffffffffffffffffffffff1614156126c95760086000828152602001908152602001600020600101549150506126dc565b8080600101915050612637565b50600090505b919050565b828054600181600116156101000203166002900490600052602060002090601f016020900481019282601f1061272257805160ff1916838001178555612750565b82800160010185558215612750579182015b8281111561274f578251825591602001919060010190612734565b5b50905061275d91906127c1565b5090565b8280548282559060005260206000209081019282156127b0579160200282015b828111156127af57825182908051906020019061279f9291906126e1565b5091602001919060010190612781565b5b5090506127bd91906127e6565b5090565b6127e391905b808211156127df5760008160009055506001016127c7565b5090565b90565b61280f91905b8082111561280b57600081816128029190612812565b506001016127ec565b5090565b90565b50805460018160011615610100020316600290046000825580601f106128385750612857565b601f01602090049060005260206000209081019061285691906127c1565b5b50565b60008135905061286981613343565b92915050565b600082601f83011261288057600080fd5b813561289361288e82613185565b613158565b9150818183526020840193506020810190508360005b838110156128d957813586016128bf88826128f8565b8452602084019350602083019250506001810190506128a9565b5050505092915050565b6000813590506128f28161335a565b92915050565b600082601f83011261290957600080fd5b813561291c612917826131ad565b613158565b9150808252602083016020830185838301111561293857600080fd5b6129438382846132e3565b50505092915050565b600082601f83011261295d57600080fd5b813561297061296b826131d9565b613158565b9150808252602083016020830185838301111561298c57600080fd5b6129978382846132e3565b50505092915050565b6000813590506129af81613371565b92915050565b6000806000606084860312156129ca57600080fd5b60006129d88682870161285a565b935050602084013567ffffffffffffffff8111156129f557600080fd5b612a018682870161294c565b925050604084013567ffffffffffffffff811115612a1e57600080fd5b612a2a8682870161294c565b9150509250925092565b60008060008060808587031215612a4a57600080fd5b6000612a588782880161285a565b945050602085013567ffffffffffffffff811115612a7557600080fd5b612a818782880161294c565b935050604085013567ffffffffffffffff811115612a9e57600080fd5b612aaa8782880161294c565b925050606085013567ffffffffffffffff811115612ac757600080fd5b612ad38782880161286f565b91505092959194509250565b60008060008060808587031215612af557600080fd5b6000612b038782880161285a565b945050602085013567ffffffffffffffff811115612b2057600080fd5b612b2c8782880161294c565b935050604085013567ffffffffffffffff811115612b4957600080fd5b612b558782880161294c565b9250506060612b66878288016128e3565b91505092959194509250565b60008060408385031215612b8557600080fd5b600083013567ffffffffffffffff811115612b9f57600080fd5b612bab8582860161294c565b925050602083013567ffffffffffffffff811115612bc857600080fd5b612bd48582860161294c565b9150509250929050565b600060208284031215612bf057600080fd5b6000612bfe848285016129a0565b91505092915050565b6000612c138383612cf6565b905092915050565b612c2481613276565b82525050565b6000612c3582613215565b612c3f8185613243565b935083602082028501612c5185613205565b8060005b85811015612c8d5784840389528151612c6e8582612c07565b9450612c7983613236565b925060208a01995050600181019050612c55565b50829750879550505050505092915050565b612ca881613288565b82525050565b612cb7816132d1565b82525050565b6000612cc88261322b565b612cd28185613265565b9350612ce28185602086016132f2565b612ceb81613325565b840191505092915050565b6000612d0182613220565b612d0b8185613254565b9350612d1b8185602086016132f2565b612d2481613325565b840191505092915050565b6000612d3a82613220565b612d448185613265565b9350612d548185602086016132f2565b612d5d81613325565b840191505092915050565b6000612d75601683613265565b91507f496e76616c6964204469737472696275746f72204944000000000000000000006000830152602082019050919050565b6000612db5601783613265565b91507f496e76616c6964204d616e7566616374757265722049440000000000000000006000830152602082019050919050565b6000612df5601283613265565b91507f4e6f7420636f6e7472616374206f776e657200000000000000000000000000006000830152602082019050919050565b6000612e35600e83613265565b91507f496e76616c696420524d532049440000000000000000000000000000000000006000830152602082019050919050565b612e71816132c7565b82525050565b6000602082019050612e8c6000830184612c1b565b92915050565b600060a082019050612ea76000830188612c1b565b612eb46020830187612e68565b8181036040830152612ec68186612cbd565b90508181036060830152612eda8185612cbd565b90508181036080830152612eee8184612c2a565b90509695505050505050565b600060a082019050612f0f6000830188612c1b565b612f1c6020830187612e68565b8181036040830152612f2e8186612cbd565b90508181036060830152612f428185612cbd565b9050612f516080830184612c9f565b9695505050505050565b6000608082019050612f706000830187612c1b565b612f7d6020830186612e68565b8181036040830152612f8f8185612d2f565b90508181036060830152612fa38184612d2f565b905095945050505050565b600060a082019050612fc36000830188612c1b565b612fd06020830187612e68565b8181036040830152612fe28186612d2f565b90508181036060830152612ff68185612d2f565b90506130056080830184612c9f565b9695505050505050565b600060208201905081810360008301526130298184612cbd565b905092915050565b6000602082019050818103600083015261304a81612d68565b9050919050565b6000602082019050818103600083015261306a81612da8565b9050919050565b6000602082019050818103600083015261308a81612de8565b9050919050565b600060208201905081810360008301526130aa81612e28565b9050919050565b60006020820190506130c66000830184612e68565b92915050565b6000610100820190506130e2600083018b612e68565b81810360208301526130f4818a612d2f565b905081810360408301526131088189612d2f565b90506131176060830188612e68565b6131246080830187612e68565b61313160a0830186612e68565b61313e60c0830185612e68565b61314b60e0830184612cae565b9998505050505050505050565b6000604051905081810181811067ffffffffffffffff8211171561317b57600080fd5b8060405250919050565b600067ffffffffffffffff82111561319c57600080fd5b602082029050602081019050919050565b600067ffffffffffffffff8211156131c457600080fd5b601f19601f8301169050602081019050919050565b600067ffffffffffffffff8211156131f057600080fd5b601f19601f8301169050602081019050919050565b6000819050602082019050919050565b600081519050919050565b600081519050919050565b600081519050919050565b6000602082019050919050565b600082825260208201905092915050565b600082825260208201905092915050565b600082825260208201905092915050565b6000613281826132a7565b9050919050565b60008115159050919050565b60008190506132a282613336565b919050565b600073ffffffffffffffffffffffffffffffffffffffff82169050919050565b6000819050919050565b60006132dc82613294565b9050919050565b82818337600083830152505050565b60005b838110156133105780820151818401526020810190506132f5565b8381111561331f576000848401525b50505050565b6000601f19601f8301169050919050565b6006811061334057fe5b50565b61334c81613276565b811461335757600080fd5b50565b61336381613288565b811461336e57600080fd5b50565b61337a816132c7565b811461338557600080fd5b5056fea365627a7a7231582056dbc8820082af303e150d7ad8123b1830db7db0d14b3c92c7631d1b868ee68c6c6578706572696d656e74616cf564736f6c63430005100040",
  "source": "// SPDX-License-Identifier: MIT\npragma solidity >=0.4.22 <0.9.0;\npragma experimental ABIEncoderV2;\n\ncontract SupplyChain {\n    address public Owner;\n\n    constructor() public {\n        Owner = msg.sender;\n    }\n\n    modifier onlyByOwner() {\n        require(msg.sender == Owner, \"Not contract owner\");\n        _;\n    }\n\n    enum STAGE {\n        Init,\n        RawMaterialSupply,\n        Manufacture,\n        Distribution,\n        Retail,\n        sold\n    }\n\n    uint256 public medicineCtr = 0;\n    uint256 public rmsCtr = 0;\n    uint256 public manCtr = 0;\n    uint256 public disCtr = 0;\n    uint256 public retCtr = 0;\n\n    struct medicine {\n        uint256 id;\n        string name;\n        string description;\n        uint256 RMSid;\n        uint256 MANid;\n        uint256 DISid;\n        uint256 RETid;\n        STAGE stage;\n    }\n\n    mapping(uint256 => medicine) public MedicineStock;\n\n    struct rawMaterialSupplier {\n        address addr;\n        uint256 id;\n        string name;\n        string place;\n        string[] materials;\n    }\n\n    mapping(uint256 => rawMaterialSupplier) public RMS;\n\n    struct manufacturer {\n        address addr;\n        uint256 id;\n        string name;\n        string place;\n        string[] availableProducts;\n    }\n\n    mapping(uint256 => manufacturer) public MAN;\n\n    struct distributor {\n        address addr;\n        uint256 id;\n        string name;\n        string place;\n        bool canDeliverFragile;\n    }\n\n    mapping(uint256 => distributor) public DIS;\n\n    struct retailer {\n        address addr;\n        uint256 id;\n        string name;\n        string place;\n    }\n\n    mapping(uint256 => retailer) public RET;\n\n    // ✅ FIX: Add getter function that returns the materials array properly\n    function getRMS(uint256 _id)\n        public\n        view\n        returns (\n            address addr,\n            uint256 id,\n            string memory name,\n            string memory place,\n            string[] memory materials\n        )\n    {\n        require(_id > 0 && _id <= rmsCtr, \"Invalid RMS ID\");\n        rawMaterialSupplier storage supplier = RMS[_id];\n        return (supplier.addr, supplier.id, supplier.name, supplier.place, supplier.materials);\n    }\n\n    // Add Raw Material Supplier\n    function addRMS(\n        address _address,\n        string memory _name,\n        string memory _place,\n        string[] memory _materials\n    ) public onlyByOwner {\n        rmsCtr++;\n        RMS[rmsCtr] = rawMaterialSupplier(_address, rmsCtr, _name, _place, _materials);\n    }\n\n    // Add Manufacturer\n    function addManufacturer(\n        address _address,\n        string memory _name,\n        string memory _place,\n        string[] memory _availableProducts\n    ) public onlyByOwner {\n        manCtr++;\n        MAN[manCtr] = manufacturer(_address, manCtr, _name, _place, _availableProducts);\n    }\n\n    // Add Distributor\n    function addDistributor(\n        address _address,\n        string memory _name,\n        string memory _place,\n        bool _canDeliverFragile\n    ) public onlyByOwner {\n        disCtr++;\n        DIS[disCtr] = distributor(_address, disCtr, _name, _place, _canDeliverFragile);\n    }\n\n    // Add Retailer\n    function addRetailer(\n        address _address,\n        string memory _name,\n        string memory _place\n    ) public onlyByOwner {\n        retCtr++;\n        RET[retCtr] = retailer(_address, retCtr, _name, _place);\n    }\n\n    // Helper Functions\n    function findRMS(address _address) private view returns (uint256) {\n        for (uint256 i = 1; i <= rmsCtr; i++) {\n            if (RMS[i].addr == _address) return RMS[i].id;\n        }\n        return 0;\n    }\n\n    function findMAN(address _address) private view returns (uint256) {\n        for (uint256 i = 1; i <= manCtr; i++) {\n            if (MAN[i].addr == _address) return MAN[i].id;\n        }\n        return 0;\n    }\n\n    function findDIS(address _address) private view returns (uint256) {\n        for (uint256 i = 1; i <= disCtr; i++) {\n            if (DIS[i].addr == _address) return DIS[i].id;\n        }\n        return 0;\n    }\n\n    function findRET(address _address) private view returns (uint256) {\n        for (uint256 i = 1; i <= retCtr; i++) {\n            if (RET[i].addr == _address) return RET[i].id;\n        }\n        return 0;\n    }\n\n    // Medicine process flow\n    function RMSsupply(uint256 _medicineID) public {\n        require(_medicineID > 0 && _medicineID <= medicineCtr);\n        uint256 _id = findRMS(msg.sender);\n        require(_id > 0);\n        require(MedicineStock[_medicineID].stage == STAGE.Init);\n        MedicineStock[_medicineID].RMSid = _id;\n        MedicineStock[_medicineID].stage = STAGE.RawMaterialSupply;\n    }\n\n    function Manufacturing(uint256 _medicineID) public {\n        require(_medicineID > 0 && _medicineID <= medicineCtr);\n        uint256 _id = findMAN(msg.sender);\n        require(_id > 0);\n        require(MedicineStock[_medicineID].stage == STAGE.RawMaterialSupply);\n        MedicineStock[_medicineID].MANid = _id;\n        MedicineStock[_medicineID].stage = STAGE.Manufacture;\n    }\n\n    function Distribute(uint256 _medicineID) public {\n        require(_medicineID > 0 && _medicineID <= medicineCtr);\n        uint256 _id = findDIS(msg.sender);\n        require(_id > 0);\n        require(MedicineStock[_medicineID].stage == STAGE.Manufacture);\n        MedicineStock[_medicineID].DISid = _id;\n        MedicineStock[_medicineID].stage = STAGE.Distribution;\n    }\n\n    function Retail(uint256 _medicineID) public {\n        require(_medicineID > 0 && _medicineID <= medicineCtr);\n        uint256 _id = findRET(msg.sender);\n        require(_id > 0);\n        require(MedicineStock[_medicineID].stage == STAGE.Distribution);\n        MedicineStock[_medicineID].RETid = _id;\n        MedicineStock[_medicineID].stage = STAGE.Retail;\n    }\n\n    function sold(uint256 _medicineID) public {\n        require(_medicineID > 0 && _medicineID <= medicineCtr);\n        uint256 _id = findRET(msg.sender);\n        require(_id > 0);\n        require(_id == MedicineStock[_medicineID].RETid);\n        require(MedicineStock[_medicineID].stage == STAGE.Retail);\n        MedicineStock[_medicineID].stage = STAGE.sold;\n    }\n\n    function addMedicine(string memory _name, string memory _description) public onlyByOwner {\n        require((rmsCtr > 0) && (manCtr > 0) && (disCtr > 0) && (retCtr > 0));\n        medicineCtr++;\n        MedicineStock[medicineCtr] = medicine(\n            medicineCtr,\n            _name,\n            _description,\n            0,\n            0,\n            0,\n            0,\n            STAGE.Init\n        );\n    }\n\n    function getManufacturer(uint256 _id)\n        public\n        view\n        returns (\n            address addr,\n            uint256 id,\n            string memory name,\n            string memory place,\n            string[] memory availableProducts\n        )\n    {\n        require(_id > 0 && _id <= manCtr, \"Invalid Manufacturer ID\");\n        manufacturer storage man = MAN[_id];\n        return (man.addr, man.id, man.name, man.place, man.availableProducts);\n    }\n\n    function getDistributor(uint256 _id)\n        public\n        view\n        returns (\n            address addr,\n            uint256 id,\n            string memory name,\n            string memory place,\n            bool canDeliverFragile\n        )\n    {\n        require(_id > 0 && _id <= disCtr, \"Invalid Distributor ID\");\n        distributor storage dis = DIS[_id];\n        return (dis.addr, dis.id, dis.name, dis.place, dis.canDeliverFragile);\n    }\n\n    function showStage(uint256 _medicineID) public view returns (string memory) {\n        require(medicineCtr > 0);\n        if (MedicineStock[_medicineID].stage == STAGE.Init) return \"Goods Ordered\";\n        else if (MedicineStock[_medicineID].stage == STAGE.RawMaterialSupply)\n            return \"Raw Material Supply Stage\";\n        else if (MedicineStock[_medicineID].stage == STAGE.Manufacture)\n            return \"Manufacturing Stage\";\n        else if (MedicineStock[_medicineID].stage == STAGE.Distribution)\n            return \"Distribution Stage\";\n        else if (MedicineStock[_medicineID].stage == STAGE.Retail)\n            return \"Retail Stage\";\n        else if (MedicineStock[_medicineID].stage == STAGE.sold) return \"Goods Sold\";\n    }\n}\n",
  "sourcePath": "C:\\Users\\Vijeth RV\\OneDrive\\Desktop\\Blockchain-Based-Supply-Chain-recent-master\\contracts\\SupplyChain.sol",
  "compiler": {
    "name": "solc",
    "version": "0.5.16+commit.9c3226ce.Emscripten.clang"
  },
  "schemaVersion": "3.4.16",
  "updatedAt": "2026-01-01T07:34:57.900Z",
  "devdoc": {
    "methods": {}
  },
  "userdoc": {
    "methods": {}
  }
}